{
  "contractName": "ChanToPepe",
  "abi": [
    {
      "constant": true,
      "inputs": [
        {
          "name": "_address",
          "type": "address"
        }
      ],
      "name": "getPepeBalance",
      "outputs": [
        {
          "name": "",
          "type": "uint256"
        }
      ],
      "payable": false,
      "stateMutability": "view",
      "type": "function",
      "signature": "0xc1ce85ee"
    },
    {
      "constant": false,
      "inputs": [],
      "name": "receivePepe",
      "outputs": [
        {
          "name": "",
          "type": "bool"
        }
      ],
      "payable": false,
      "stateMutability": "nonpayable",
      "type": "function",
      "signature": "0x77b6719e"
    }
  ],
  "bytecode": "0x60806040527386bd8556f7c006061a6263c01b8f865633fe1f646000806101000a81548173ffffffffffffffffffffffffffffffffffffffff021916908373ffffffffffffffffffffffffffffffffffffffff16021790555034801561006457600080fd5b5061031c806100746000396000f3fe60806040526004361061004c576000357c0100000000000000000000000000000000000000000000000000000000900463ffffffff16806377b6719e14610051578063c1ce85ee14610080575b600080fd5b34801561005d57600080fd5b506100666100e5565b604051808215151515815260200191505060405180910390f35b34801561008c57600080fd5b506100cf600480360360208110156100a357600080fd5b81019080803573ffffffffffffffffffffffffffffffffffffffff1690602001909291905050506101f2565b6040518082815260200191505060405180910390f35b60008060009054906101000a900473ffffffffffffffffffffffffffffffffffffffff1673ffffffffffffffffffffffffffffffffffffffff1663a9059cbb336305f5e1006040518363ffffffff167c0100000000000000000000000000000000000000000000000000000000028152600401808373ffffffffffffffffffffffffffffffffffffffff1673ffffffffffffffffffffffffffffffffffffffff16815260200182815260200192505050602060405180830381600087803b1580156101af57600080fd5b505af11580156101c3573d6000803e3d6000fd5b505050506040513d60208110156101d957600080fd5b8101908080519060200190929190505050506001905090565b60008060009054906101000a900473ffffffffffffffffffffffffffffffffffffffff1673ffffffffffffffffffffffffffffffffffffffff166370a08231836040518263ffffffff167c0100000000000000000000000000000000000000000000000000000000028152600401808273ffffffffffffffffffffffffffffffffffffffff1673ffffffffffffffffffffffffffffffffffffffff16815260200191505060206040518083038186803b1580156102ae57600080fd5b505afa1580156102c2573d6000803e3d6000fd5b505050506040513d60208110156102d857600080fd5b8101908080519060200190929190505050905091905056fea165627a7a723058202b0939b328c8661018aa02a0dae345087528c2c5cf1af96492cddd27be0cd9460029",
  "source": "pragma solidity 0.5.0;\n\nimport \"@openzeppelin/contracts/token/ERC20/ERC20.sol\";\n\ncontract ChanToPepe {\n\n    ERC20 PepeToken = ERC20(0x86BD8556F7C006061a6263C01b8F865633fE1f64);\n\n    function getPepeBalance(address _address) public view returns (uint256) {\n        return PepeToken.balanceOf(_address);\n    }\n\n    function receivePepe() public returns (bool) {\n        PepeToken.transfer(msg.sender, 100000000);\n        return (true);\n    }\n}",
  "sourcePath": "/home/splen/Dev/Solidity/pepecash-exchange-sol/contracts/ChanToPepe.sol",
  "compiler": {
    "name": "solc",
    "version": "0.5.0+commit.1d4f565a.Emscripten.clang"
  },
  "schemaVersion": "3.0.2",
  "updatedAt": "2020-02-01T12:13:13.898Z",
  "devdoc": {
    "methods": {}
  },
  "userdoc": {
    "methods": {}
  }
}